:0300000002107972
:0C107900787FE4F6D8FD75813002108508
:10102F000708090004050600010203000000000084
:10103F00070809FF040506FA010203FDD1000DFBA5
:0B104F008F807F0512105AD2A27F058F
:0F105A00EFD394004009E4FE0EBE6EFC1F80F140
:011069002264
:07106A007FCF1210717F041B
:08107100C2A012104FC2A2221E
:10100F00AF11EF3395E0FE743F2FF58274103EF56C
:08101F0083E493F5192430FF6E
:08102700D2A012104FC2A22258
:100FE900E4F50AF50BF50FF5107F01121071E4F520
:100FF9001AF512F513F514F515F516F517F509F5A2
:0610090008F51BF51C2296
:030ED200120B9967
:100ED500AB0BAA0A9000007F01121071850A1285DA
:100EE5000B13E4F514F515C3EA64809480500C7F68
:100EF5003D121027C3E49BFBE49AFAEB4A602A7C77
:100F0500007D0AAF03AE02120E47AF82EF25E02443
:100F15001DF8A60408A6057C007D0AAF03AE0212E3
:100F25000E47AA06AB07A380D2E58224FFFFE5831F
:100F350034FFAD07FCC3EC648094804015ED25E0DB
:100F4500241DF808E62430FF121027ED1D70E61C5D
:070F550080E3E4F50FF51045
:010F5C002272
:100FC00012106A7F211210277F521210277F4F12B2
:100FD00010277F521210277F521210277F451210C0
:090FE000277FE812105A020FE904
:100B9900751A01E5086401707112106AE5132515CB
:100BA900F517E5123514F516F50A85170B750F00BB
:100BB900751001451770057F30121027E517451686
:100BC9006023AE16AF177C007D0A120E47ED243064
:100BD900FF121027AE16AF177C007D0A120E478E42
:100BE900168F1780D77F3D121027E4F512F513F5FC
:100BF90014F515F509F508D3E50B94FFE50A6480AA
:100C090094FF5003020E34020D3AE50864026003B2
:100C1900020CC012106AC3E5139515FFE51295146D
:100C2900FED3EF9400EE6480948040068E168F17F1
:100C3900800DC3E5159513F517E5149512F5168E74
:100C49000A8F0B750F00751001E517451670057FA2
:100C590030121027E51745166023AE16AF177C0032
:100C69007D0A120E47ED2430FF121027AE16AF177A
:100C79007C007D0A120E478E168F1780D7C3E513A5
:100C89009515E5129514C36480948050057F2D1243
:100C990010277F3D121027E4F512F513F514F51509
:100CA900F509F508D3E50B94FFE50A648094FF5034
:100CB90003020E34020D3AE5086403707712106AD4
:100CC900AC14AD15AE12AF13120E358E168F1785F3
:100CD900160A85170B750F00751001E51745167073
:100CE900057F30121027E51745166023AE16AF179A
:100CF9007C007D0A120E47ED2430FF121027AE1634
:100D0900AF177C007D0A120E478E168F1780D77F8A
:100D19003D121027E4F512F513F514F515F509F54B
:100D290008D3E50B94FFE50A648094FF5003020E93
:100D390034020FC0E50864046003020E3412106A1D
:100D4900E4F519E51545147003020E16AC14AD153A
:100D5900AE12AF13120E478E168F1785160A851716
:100D69000B750F00751001AC14AD15120E35C3E5E6
:100D7900139FF50EE5129EF50DE517451670057FD3
:100D890030121027E51745166023AE16AF177C0001
:100D99007D0A120E47ED2430FF121027AE16AF1749
:100DA9007C007D0A120E478E168F1780D77F3D1261
:100DB90010277FA312106CE50E450D70057F3012C8
:100DC9001027E50E450D6023AE0DAF0E7C007D0AA0
:100DD900120E47ED2430FF121027AE0DAF0E7C0026
:100DE9007D0A120E478E0D8F0E80D77F3D12102778
:100DF9007F641210277F6F1210277F6D121027E46E
:100E0900F512F513F514F515F509F508227F2112E8
:100E190010277F521210277F4F1210277F5212106E
:0C0E2900277F521210277F45121027224D
:100F5D007F011210717511FFD2A2C2A17F3812103C
:100F6D00717F0512105A7F381210717F0512105AB9
:100F7D007F0C1210717F0112105A7F061210717FB3
:100F8D000112105A7F801210717F0112105A7F01C9
:100F9D00121071E4F518F519F51AF512F513F5148B
:100FAD00F515F516F517F509F508F50FF510F51BFF
:030FBD00F51C22FE
:1008000075B0FEE5B064FE70030208E67F141210B6
:100810005AE5B064FE6028E5B054F0F50C24906011
:100820001B24C0601224E0600924F07012E4F5116A
:10083000800D75110180087511028003751103E5A3
:10084000B0B4FEFBE511600A64016006E5116402C4
:100850007065E51A6003120FE9E509AF117029EF21
:100860003395E0FE742F2FF58274103EF583E493E8
:10087000FB7A00AE12AF137C007D0A120E35EF2B0F
:10088000F513EA3EF512805BEF3395E0FE742F2FEF
:10089000F58274103EF583E493FB7A00AE14AF1535
:1008A0007C007D0A120E35EF2BF515EA3EF5147526
:1008B0001B00751C01802C0509E5106401450F70B3
:1008C0000F120ED5E4F50FF510750901F51A801019
:1008D000E509D394014009120ED2750901E4F51A15
:1008E00075080412100F75B0FDE5B064FD700302C9
:1008F00009D67F1412105AE5B064FD6028E5B054A3
:10090000F0F50C2490601B24C0601224E0600924E0
:10091000F07012751104800D7511058008751106AF
:100920008003751107E5B0B4FDFBE51164046012A6
:10093000E5116405600CE5116406706BE511640750
:100940006065E51A6003120FE9E509AF117029EF40
:100950003395E0FE742F2FF58274103EF583E493F7
:10096000FB7A00AE12AF137C007D0A120E35EF2B1E
:10097000F513EA3EF512805BEF3395E0FE742F2FFE
:10098000F58274103EF583E493FB7A00AE14AF1544
:100990007C007D0A120E35EF2BF515EA3EF5147535
:1009A0001B00751C01802C0509E5106401450F70C2
:1009B0000F120ED5E4F50FF510750901F51A801028
:1009C000E509D394014009120ED2750901E4F51A24
:1009D00075080312100F75B0FBE5B064FB700302DD
:1009E0000AC97F1412105AE5B064FB6028E5B054C0
:1009F000F0F50C2490601B24C0601224E0600924F0
:100A0000F07012751108800D751109800875110AB2
:100A1000800375110BE5B0B4FBFBE5116408600CB5
:100A2000E51164096006E511640A7065E51A600362
:100A3000120FE9E509AF117029EF3395E0FE742F2D
:100A40002FF58274103EF583E493FB7A00AE12AF6B
:100A5000137C007D0A120E35EF2BF513EA3EF512DA
:100A60008064EF3395E0FE742F2FF58274103EF50D
:100A700083E493FB7A00AE14AF157C007D0A120E5E
:100A800035EF2BF515EA3EF514751B00751C01803A
:100A900035E511640B702F0509E5106401450F70F1
:100AA0000F120ED5E4F50FF510750901F51A801334
:100AB000E509D39401400C120B99120ED57509016A
:100AC000E4F51A75080212100F75B0F7E5B064F777
:100AD0007003020B987F1412105AE5B064F7602877
:100AE000E5B054F0F50C2490601B24C0601224E0A3
:100AF000600924F0701275110C800D75110D8008BD
:100B000075110E800375110FE5B0B4F7FBE511B454
:100B10000C03120FE9E511640D703DE5097018AE84
:100B200012AF13FC7D0A120E358E128F137F301216
:100B30001027E4F5B08021E509C39401401AAE14F2
:100B4000AF157C007D0A120E358E148F157F301282
:100B50001027751B00751C01E511B40E03120B99CB
:100B6000E511640F70320509E5106401450F700F3F
:100B7000120ED5E4F50FF510750901F51A8013E58D
:100B800009D39401400C120B99120ED5750901E49A
:090B9000F51A75080112100F227C
:08108500120F5D12080080FB50
:100E3500EF8DF0A4A8F0CF8CF0A428CE8DF0A42ED1
:020E4500FE228B
:100E4700C2D5EC30E709B2D5E4C39DFDE49CFCEEC6
:100E570030E715B2D5E4C39FFFE49EFE120E7DC3B3
:100E6700E49DFDE49CFC8003120E7D30D507C3E4AE
:060E77009FFFE49EFE2235
:100E7D00BC000BBE0029EF8DF084FFADF022E4CC59
:100E8D00F875F008EF2FFFEE33FEEC33FCEE9DEC22
:100E9D00984005FCEE9DFE0FD5F0E9E4CEFD22ED68
:100EAD00F8F5F0EE8420D21CFEADF075F008EF2FB2
:100EBD00FFED33FD4007985006D5F0F222C398FDA3
:050ECD000FD5F0EA2240
:00000001FF
