:03000000020E509D
:0C0E5000787FE4F6D8FD75811A020E5C74
:100DEF0007080900040506000102030000000000C7
:100DFF00070809FF040506FA010203FDD1000DFBE8
:0B0E0F008F807F05120E1AD2A27F0513
:0F0E1A00EFD394004009E4FE0EBE6EFC1F80F182
:010E290022A6
:070E41007FCF120E487F0471
:080E4800C2A0120E0FC2A2228B
:0F0E2A00AE16AF177C007D0A120D0EED2430FFBF
:080E3900D2A0120E0FC2A2228A
:100D99007511FFD2A2C2A17F38120E487F05120E2B
:100DA9001A7F38120E487F05120E1A7F0C120E4850
:100DB9007F01120E1A7F06120E487F01120E1A7F4A
:100DC90080120E487F01120E1A7F01120E48E4F5B7
:100DD90018F519F51AF512F513F514F515F516F5B3
:060DE90017F50BF50A22CC
:1008000075B0FEE5B064FE70030208D77F14120EC7
:100810001AE5B064FE6028E5B054F0F50E2490604F
:100820001B24C0601224E0600924F07012E4F5116A
:10083000800D75110180087511028003751103E5A3
:10084000B0B4FEFBE511600A64016006E5116402C4
:100850007064E51A60087F01120E48E4F51AE50B92
:10086000AF117029EF3395E0FE74EF2FF582740D10
:100870003EF583E493FB7A00AE12AF137C007D0A51
:10088000120CFCEF2BF513EA3EF512802FEF339597
:10089000E0FE74EF2FF582740D3EF583E493FB7A4E
:1008A00000AE14AF157C007D0A120CFCEF2BF51581
:1008B000EA3EF5148006750B01750A04AF11EF339B
:1008C00095E0FE74FF2FF582740D3EF583E493F5F9
:1008D000192430FF120E3975B0FDE5B064FD7003C8
:1008E0000209B87F14120E1AE5B064FD6028E5B065
:1008F00054F0F50E2490601B24C0601224E06009BF
:1009000024F07012751104800D75110580087511A1
:10091000068003751107E5B0B4FDFBE511640460C2
:1009200012E5116405600CE5116406706AE5116456
:10093000076064E51A60087F01120E48E4F51AE5C5
:100940000BAF117029EF3395E0FE74EF2FF5827431
:100950000D3EF583E493FB7A00AE12AF137C007D6D
:100960000A120CFCEF2BF513EA3EF512802FEF3341
:1009700095E0FE74EF2FF582740D3EF583E493FB52
:100980007A00AE14AF157C007D0A120CFCEF2BF53B
:1009900015EA3EF5148006750B01750A03AF11EFD9
:1009A0003395E0FE74FF2FF582740D3EF583E493DA
:1009B000F5192430FF120E3975B0FBE5B064FB70F9
:1009C00003020A987F14120E1AE5B064FB6028E552
:1009D000B054F0F50E2490601B24C0601224E06037
:1009E0000924F07012751108800D751109800875C1
:1009F000110A800375110BE5B0B4FBFBE511640827
:100A0000600CE51164096006E511640A7064E51A7A
:100A100060087F01120E48E4F51AE50BAF1170294A
:100A2000EF3395E0FE74EF2FF582740D3EF583E40D
:100A300093FB7A00AE12AF137C007D0A120CFCEF20
:100A40002BF513EA3EF5128034EF3395E0FE74EF98
:100A50002FF582740D3EF583E493FB7A00AE14AF5C
:100A6000157C007D0A120CFCEF2BF515EA3EF514FF
:100A7000800BE511B40B06750B01750A02AF11EF7F
:100A80003395E0FE74FF2FF582740D3EF583E493F9
:100A9000F5192430FF120E3975B0F7E5B064F77020
:100AA00003020CFB7F14120E1AE5B064F76028E510
:100AB000B054F0F50E2490601B24C0601224E06056
:100AC0000924F0701275110C800D75110D800875D8
:100AD000110E800375110FE5B0B4F7FBE51124F397
:100AE000601814604E147003020CDC2403600302CF
:100AF0000CFB7F01120E48020CB0E50B7017AE1212
:100B0000AF13FC7D0A120CFC8E128F137F30120E75
:100B100039E4F5B022E50BC394015003020CFBAE9F
:100B200014AF157C007D0A120CFC8E148F157F30DB
:100B3000020CD9751A01E50A64017036120E41E5FE
:100B4000132515F517E5123514F516F50C85170D57
:100B5000E51745166014120E2AAE16AF177C007DFD
:100B60000A120D0E8E168F1780E67F3D120E390287
:100B70000CB0E50A64027069120E41C3E5139515C5
:100B8000FFE5129514FED3EF9400EE64809480404C
:100B9000068E168F17800DC3E5159513F517E5140E
:100BA0009512F51685160C85170DE5174516601478
:100BB000120E2AAE16AF177C007D0A120D0E8E168D
:100BC0008F1780E6C3E5139515E5129514C364806D
:100BD000948050057F2D120E397F3D120E39020C84
:100BE000B0E50A6403703A120E41AC14AD15AE12B2
:100BF000AF13120CFC8E168F1785160C85170DE59A
:100C00001745166014120E2AAE16AF177C007D0A27
:100C1000120D0E8E168F1780E67F3D120E39020CD4
:100C2000B0E50A64046003020CFB120E41E4F519FE
:100C3000E51545147003020CBEAC14AD15AE12AF31
:100C400013120D0E8E168F17AC14AD15120CFCC3BB
:100C5000E5139FF510E5129EF50FE5174516601494
:100C6000120E2AAE16AF177C007D0A120D0E8E16DC
:100C70008F1780E67F3D120E397FA3120E43E510D9
:100C8000450F6018AE0FAF10120E2EAE0FAF107CD6
:100C9000007D0A120D0E8E0F8F1080E27F3D120E26
:100CA000397F64120E397F6F120E397F6D120E3943
:100CB000E4F512F513F514F515F50BF50A227F216D
:100CC000120E397F52120E397F4F120E397F521297
:100CD0000E397F52120E397F45020E39AF11EF33B4
:100CE00095E0FE74FF2FF582740D3EF583E49324A6
:0C0CF00030FF120E39750B01750A01224D
:080E5C00120D9912080080FB41
:100CFC00EF8DF0A4A8F0CF8CF0A428CE8DF0A42E0C
:020D0C00FE22C5
:100D0E00C2D5EC30E709B2D5E4C39DFDE49CFCEE00
:100D1E0030E715B2D5E4C39FFFE49EFE120D44C327
:100D2E00E49DFDE49CFC8003120D4430D507C3E422
:060D3E009FFFE49EFE226F
:100D4400BC000BBE0029EF8DF084FFADF022E4CC93
:100D5400F875F008EF2FFFEE33FEEC33FCEE9DEC5C
:100D6400984005FCEE9DFE0FD5F0E9E4CEFD22EDA2
:100D7400F8F5F0EE8420D21CFEADF075F008EF2FEC
:100D8400FFED33FD4007985006D5F0F222C398FDDD
:050D94000FD5F0EA227A
:00000001FF
